{
  "address": "0xE5AA7247818A35001050a2c4CAC8412c79d31359",
  "abi": [
    {
      "inputs": [],
      "stateMutability": "nonpayable",
      "type": "constructor"
    },
    {
      "inputs": [],
      "name": "AccessControlBadConfirmation",
      "type": "error"
    },
    {
      "inputs": [
        {
          "internalType": "address",
          "name": "account",
          "type": "address"
        },
        {
          "internalType": "bytes32",
          "name": "neededRole",
          "type": "bytes32"
        }
      ],
      "name": "AccessControlUnauthorizedAccount",
      "type": "error"
    },
    {
      "inputs": [],
      "name": "EnforcedPause",
      "type": "error"
    },
    {
      "inputs": [],
      "name": "ExpectedPause",
      "type": "error"
    },
    {
      "anonymous": false,
      "inputs": [
        {
          "indexed": false,
          "internalType": "address",
          "name": "account",
          "type": "address"
        }
      ],
      "name": "Paused",
      "type": "event"
    },
    {
      "anonymous": false,
      "inputs": [
        {
          "indexed": false,
          "internalType": "uint256",
          "name": "timestamp",
          "type": "uint256"
        },
        {
          "indexed": false,
          "internalType": "bytes32",
          "name": "tablelandHash",
          "type": "bytes32"
        }
      ],
      "name": "PredictionUpdated",
      "type": "event"
    },
    {
      "anonymous": false,
      "inputs": [
        {
          "indexed": true,
          "internalType": "bytes32",
          "name": "role",
          "type": "bytes32"
        },
        {
          "indexed": true,
          "internalType": "bytes32",
          "name": "previousAdminRole",
          "type": "bytes32"
        },
        {
          "indexed": true,
          "internalType": "bytes32",
          "name": "newAdminRole",
          "type": "bytes32"
        }
      ],
      "name": "RoleAdminChanged",
      "type": "event"
    },
    {
      "anonymous": false,
      "inputs": [
        {
          "indexed": true,
          "internalType": "bytes32",
          "name": "role",
          "type": "bytes32"
        },
        {
          "indexed": true,
          "internalType": "address",
          "name": "account",
          "type": "address"
        },
        {
          "indexed": true,
          "internalType": "address",
          "name": "sender",
          "type": "address"
        }
      ],
      "name": "RoleGranted",
      "type": "event"
    },
    {
      "anonymous": false,
      "inputs": [
        {
          "indexed": true,
          "internalType": "bytes32",
          "name": "role",
          "type": "bytes32"
        },
        {
          "indexed": true,
          "internalType": "address",
          "name": "account",
          "type": "address"
        },
        {
          "indexed": true,
          "internalType": "address",
          "name": "sender",
          "type": "address"
        }
      ],
      "name": "RoleRevoked",
      "type": "event"
    },
    {
      "anonymous": false,
      "inputs": [
        {
          "indexed": false,
          "internalType": "address",
          "name": "account",
          "type": "address"
        }
      ],
      "name": "Unpaused",
      "type": "event"
    },
    {
      "inputs": [],
      "name": "BASIS_POINTS",
      "outputs": [
        {
          "internalType": "uint256",
          "name": "",
          "type": "uint256"
        }
      ],
      "stateMutability": "view",
      "type": "function"
    },
    {
      "inputs": [],
      "name": "DEFAULT_ADMIN_ROLE",
      "outputs": [
        {
          "internalType": "bytes32",
          "name": "",
          "type": "bytes32"
        }
      ],
      "stateMutability": "view",
      "type": "function"
    },
    {
      "inputs": [],
      "name": "UPDATER_ROLE",
      "outputs": [
        {
          "internalType": "bytes32",
          "name": "",
          "type": "bytes32"
        }
      ],
      "stateMutability": "view",
      "type": "function"
    },
    {
      "inputs": [
        {
          "internalType": "address",
          "name": "asset",
          "type": "address"
        }
      ],
      "name": "getLatestPrediction",
      "outputs": [
        {
          "internalType": "uint256",
          "name": "",
          "type": "uint256"
        },
        {
          "internalType": "uint256",
          "name": "",
          "type": "uint256"
        },
        {
          "internalType": "bytes32",
          "name": "",
          "type": "bytes32"
        }
      ],
      "stateMutability": "view",
      "type": "function"
    },
    {
      "inputs": [
        {
          "internalType": "bytes32",
          "name": "role",
          "type": "bytes32"
        }
      ],
      "name": "getRoleAdmin",
      "outputs": [
        {
          "internalType": "bytes32",
          "name": "",
          "type": "bytes32"
        }
      ],
      "stateMutability": "view",
      "type": "function"
    },
    {
      "inputs": [
        {
          "internalType": "bytes32",
          "name": "role",
          "type": "bytes32"
        },
        {
          "internalType": "address",
          "name": "account",
          "type": "address"
        }
      ],
      "name": "grantRole",
      "outputs": [],
      "stateMutability": "nonpayable",
      "type": "function"
    },
    {
      "inputs": [
        {
          "internalType": "bytes32",
          "name": "role",
          "type": "bytes32"
        },
        {
          "internalType": "address",
          "name": "account",
          "type": "address"
        }
      ],
      "name": "hasRole",
      "outputs": [
        {
          "internalType": "bool",
          "name": "",
          "type": "bool"
        }
      ],
      "stateMutability": "view",
      "type": "function"
    },
    {
      "inputs": [],
      "name": "latestPrediction",
      "outputs": [
        {
          "internalType": "uint256",
          "name": "timestamp",
          "type": "uint256"
        },
        {
          "internalType": "bytes32",
          "name": "tablelandHash",
          "type": "bytes32"
        }
      ],
      "stateMutability": "view",
      "type": "function"
    },
    {
      "inputs": [],
      "name": "pause",
      "outputs": [],
      "stateMutability": "nonpayable",
      "type": "function"
    },
    {
      "inputs": [],
      "name": "paused",
      "outputs": [
        {
          "internalType": "bool",
          "name": "",
          "type": "bool"
        }
      ],
      "stateMutability": "view",
      "type": "function"
    },
    {
      "inputs": [
        {
          "internalType": "bytes32",
          "name": "role",
          "type": "bytes32"
        },
        {
          "internalType": "address",
          "name": "callerConfirmation",
          "type": "address"
        }
      ],
      "name": "renounceRole",
      "outputs": [],
      "stateMutability": "nonpayable",
      "type": "function"
    },
    {
      "inputs": [
        {
          "internalType": "bytes32",
          "name": "role",
          "type": "bytes32"
        },
        {
          "internalType": "address",
          "name": "account",
          "type": "address"
        }
      ],
      "name": "revokeRole",
      "outputs": [],
      "stateMutability": "nonpayable",
      "type": "function"
    },
    {
      "inputs": [
        {
          "internalType": "bytes4",
          "name": "interfaceId",
          "type": "bytes4"
        }
      ],
      "name": "supportsInterface",
      "outputs": [
        {
          "internalType": "bool",
          "name": "",
          "type": "bool"
        }
      ],
      "stateMutability": "view",
      "type": "function"
    },
    {
      "inputs": [],
      "name": "unpause",
      "outputs": [],
      "stateMutability": "nonpayable",
      "type": "function"
    },
    {
      "inputs": [
        {
          "internalType": "address[]",
          "name": "assets",
          "type": "address[]"
        },
        {
          "internalType": "uint256[]",
          "name": "weights",
          "type": "uint256[]"
        },
        {
          "internalType": "bytes32",
          "name": "tablelandHash",
          "type": "bytes32"
        }
      ],
      "name": "updatePrediction",
      "outputs": [],
      "stateMutability": "nonpayable",
      "type": "function"
    },
    {
      "inputs": [
        {
          "internalType": "address[]",
          "name": "assets",
          "type": "address[]"
        },
        {
          "internalType": "uint256[]",
          "name": "weights",
          "type": "uint256[]"
        },
        {
          "internalType": "bytes32",
          "name": "tablelandHash",
          "type": "bytes32"
        }
      ],
      "name": "verifyPrediction",
      "outputs": [
        {
          "internalType": "bool",
          "name": "",
          "type": "bool"
        }
      ],
      "stateMutability": "view",
      "type": "function"
    }
  ],
  "transactionHash": "0xb7fc7ee2de31160a21397247baa61a26aba9b169bc4f7aed5d672d65c7d79c7b",
  "args": [],
  "numDeployments": 3,
  "solcInputHash": "d1f2011cfc1b6a9e1eacd8ba58edc728",
  "bytecode": "0x608060405234801561001057600080fd5b506001805460ff19169055610026600033610057565b506100517f73e573f9566d61418a34d5de3ff49360f9c51fec37f7486551670290f6285dab33610057565b50610103565b6000828152602081815260408083206001600160a01b038516845290915281205460ff166100f9576000838152602081815260408083206001600160a01b03861684529091529020805460ff191660011790556100b13390565b6001600160a01b0316826001600160a01b0316847f2f8788117e7eff1d82e926ec794901d17c78024a50270940304540a733656f0d60405160405180910390a45060016100fd565b5060005b92915050565b610b75806101126000396000f3fe608060405234801561001057600080fd5b50600436106101005760003560e01c80636c5adfa811610097578063a217fddf11610066578063a217fddf14610224578063d547741f1461022c578063e1f1c4a71461023f578063fc500b901461024857600080fd5b80636c5adfa8146101d3578063740cc1a6146101e65780638456cb591461020957806391d148541461021157600080fd5b806336568abe116100d357806336568abe146101865780633f4ba83a1461019957806347e63380146101a15780635c975abb146101c857600080fd5b806301ffc9a71461010557806311769f1f1461012d578063248a9ca3146101405780632f2ff15d14610171575b600080fd5b6101186101133660046108a2565b610296565b60405190151581526020015b60405180910390f35b61011861013b3660046109be565b6102cd565b61016361014e366004610a87565b60009081526020819052604090206001015490565b604051908152602001610124565b61018461017f366004610aa0565b610377565b005b610184610194366004610aa0565b6103a2565b6101846103da565b6101637f73e573f9566d61418a34d5de3ff49360f9c51fec37f7486551670290f6285dab81565b60015460ff16610118565b6101846101e13660046109be565b6103f0565b6002546004546101f4919082565b60408051928352602083019190915201610124565b610184610627565b61011861021f366004610aa0565b61063a565b610163600081565b61018461023a366004610aa0565b610663565b61016361271081565b61027b610256366004610acc565b6001600160a01b03166000908152600360205260409020546002546004549192909190565b60408051938452602084019290925290820152606001610124565b60006001600160e01b03198216637965db0b60e01b14806102c757506301ffc9a760e01b6001600160e01b03198316145b92915050565b60045460009082146102e157506000610370565b60005b845181101561036a578381815181106102ff576102ff610ae7565b60200260200101516002600101600087848151811061032057610320610ae7565b60200260200101516001600160a01b03166001600160a01b031681526020019081526020016000205414610358576000915050610370565b8061036281610b13565b9150506102e4565b50600190505b9392505050565b60008281526020819052604090206001015461039281610688565b61039c8383610692565b50505050565b6001600160a01b03811633146103cb5760405163334bd91960e11b815260040160405180910390fd5b6103d58282610724565b505050565b60006103e581610688565b6103ed61078f565b50565b7f73e573f9566d61418a34d5de3ff49360f9c51fec37f7486551670290f6285dab61041a81610688565b6104226107e1565b82518451146104715760405162461bcd60e51b8152602060048201526016602482015275082e4e4c2f2e640d8cadccee8d040dad2e6dac2e8c6d60531b60448201526064015b60405180910390fd5b816104b75760405162461bcd60e51b8152602060048201526016602482015275092dcecc2d8d2c840a8c2c4d8cad8c2dcc840d0c2e6d60531b6044820152606401610468565b6000805b84518110156104fd578481815181106104d6576104d6610ae7565b6020026020010151826104e99190610b2c565b9150806104f581610b13565b9150506104bb565b50612710811461055f5760405162461bcd60e51b815260206004820152602760248201527f546f74616c20776569676874206d75737420626520313030303020626173697360448201526620706f696e747360c81b6064820152608401610468565b42600255600483905560005b85518110156105e65784818151811061058657610586610ae7565b6020026020010151600260010160008884815181106105a7576105a7610ae7565b60200260200101516001600160a01b03166001600160a01b031681526020019081526020016000208190555080806105de90610b13565b91505061056b565b5060408051428152602081018590527f627568972197e958e8abeeff320b6fcc53032ec662c804f1ab11fc613e5cd129910160405180910390a15050505050565b600061063281610688565b6103ed610807565b6000918252602082815260408084206001600160a01b0393909316845291905290205460ff1690565b60008281526020819052604090206001015461067e81610688565b61039c8383610724565b6103ed8133610842565b600061069e838361063a565b61071c576000838152602081815260408083206001600160a01b03861684529091529020805460ff191660011790556106d43390565b6001600160a01b0316826001600160a01b0316847f2f8788117e7eff1d82e926ec794901d17c78024a50270940304540a733656f0d60405160405180910390a45060016102c7565b5060006102c7565b6000610730838361063a565b1561071c576000838152602081815260408083206001600160a01b0386168085529252808320805460ff1916905551339286917ff6391f5c32d9c69d2a47ea670b442974b53935d1edc7fd64eb21e047a839171b9190a45060016102c7565b61079761087f565b6001805460ff191690557f5db9ee0a495bf2e6ff9c91a7834c1ba4fdd244a5e8aa4e537bd38aeae4b073aa335b6040516001600160a01b03909116815260200160405180910390a1565b60015460ff16156108055760405163d93c066560e01b815260040160405180910390fd5b565b61080f6107e1565b6001805460ff1916811790557f62e78cea01bee320cd4e420270b5ea74000d11b0c9f74754ebdbfc544b05a258336107c4565b61084c828261063a565b61087b5760405163e2517d3f60e01b81526001600160a01b038216600482015260248101839052604401610468565b5050565b60015460ff1661080557604051638dfc202b60e01b815260040160405180910390fd5b6000602082840312156108b457600080fd5b81356001600160e01b03198116811461037057600080fd5b634e487b7160e01b600052604160045260246000fd5b604051601f8201601f1916810167ffffffffffffffff8111828210171561090b5761090b6108cc565b604052919050565b600067ffffffffffffffff82111561092d5761092d6108cc565b5060051b60200190565b80356001600160a01b038116811461094e57600080fd5b919050565b600082601f83011261096457600080fd5b8135602061097961097483610913565b6108e2565b82815260059290921b8401810191818101908684111561099857600080fd5b8286015b848110156109b3578035835291830191830161099c565b509695505050505050565b6000806000606084860312156109d357600080fd5b833567ffffffffffffffff808211156109eb57600080fd5b818601915086601f8301126109ff57600080fd5b81356020610a0f61097483610913565b82815260059290921b8401810191818101908a841115610a2e57600080fd5b948201945b83861015610a5357610a4486610937565b82529482019490820190610a33565b97505087013592505080821115610a6957600080fd5b50610a7686828701610953565b925050604084013590509250925092565b600060208284031215610a9957600080fd5b5035919050565b60008060408385031215610ab357600080fd5b82359150610ac360208401610937565b90509250929050565b600060208284031215610ade57600080fd5b61037082610937565b634e487b7160e01b600052603260045260246000fd5b634e487b7160e01b600052601160045260246000fd5b600060018201610b2557610b25610afd565b5060010190565b808201808211156102c7576102c7610afd56fea2646970667358221220d2edce1eda794796781fbd7e06b5757d6ccc8165b20702ffe684c82670ae142764736f6c63430008140033",
  "devdoc": {
    "errors": {
      "AccessControlBadConfirmation()": [
        {
          "details": "The caller of a function is not the expected one. NOTE: Don't confuse with {AccessControlUnauthorizedAccount}."
        }
      ],
      "AccessControlUnauthorizedAccount(address,bytes32)": [
        {
          "details": "The `account` is missing a role."
        }
      ],
      "EnforcedPause()": [
        {
          "details": "The operation failed because the contract is paused."
        }
      ],
      "ExpectedPause()": [
        {
          "details": "The operation failed because the contract is not paused."
        }
      ]
    },
    "events": {
      "Paused(address)": {
        "details": "Emitted when the pause is triggered by `account`."
      },
      "RoleAdminChanged(bytes32,bytes32,bytes32)": {
        "details": "Emitted when `newAdminRole` is set as ``role``'s admin role, replacing `previousAdminRole` `DEFAULT_ADMIN_ROLE` is the starting admin for all roles, despite {RoleAdminChanged} not being emitted signaling this."
      },
      "RoleGranted(bytes32,address,address)": {
        "details": "Emitted when `account` is granted `role`. `sender` is the account that originated the contract call, an admin role bearer except when using {AccessControl-_setupRole}."
      },
      "RoleRevoked(bytes32,address,address)": {
        "details": "Emitted when `account` is revoked `role`. `sender` is the account that originated the contract call:   - if using `revokeRole`, it is the admin role bearer   - if using `renounceRole`, it is the role bearer (i.e. `account`)"
      },
      "Unpaused(address)": {
        "details": "Emitted when the pause is lifted by `account`."
      }
    },
    "kind": "dev",
    "methods": {
      "getRoleAdmin(bytes32)": {
        "details": "Returns the admin role that controls `role`. See {grantRole} and {revokeRole}. To change a role's admin, use {_setRoleAdmin}."
      },
      "grantRole(bytes32,address)": {
        "details": "Grants `role` to `account`. If `account` had not been already granted `role`, emits a {RoleGranted} event. Requirements: - the caller must have ``role``'s admin role. May emit a {RoleGranted} event."
      },
      "hasRole(bytes32,address)": {
        "details": "Returns `true` if `account` has been granted `role`."
      },
      "paused()": {
        "details": "Returns true if the contract is paused, and false otherwise."
      },
      "renounceRole(bytes32,address)": {
        "details": "Revokes `role` from the calling account. Roles are often managed via {grantRole} and {revokeRole}: this function's purpose is to provide a mechanism for accounts to lose their privileges if they are compromised (such as when a trusted device is misplaced). If the calling account had been revoked `role`, emits a {RoleRevoked} event. Requirements: - the caller must be `callerConfirmation`. May emit a {RoleRevoked} event."
      },
      "revokeRole(bytes32,address)": {
        "details": "Revokes `role` from `account`. If `account` had been granted `role`, emits a {RoleRevoked} event. Requirements: - the caller must have ``role``'s admin role. May emit a {RoleRevoked} event."
      },
      "supportsInterface(bytes4)": {
        "details": "See {IERC165-supportsInterface}."
      }
    },
    "version": 1
  },
  "userdoc": {
    "kind": "user",
    "methods": {},
    "version": 1
  },
  "storageLayout": {
    "storage": [
      {
        "astId": 72,
        "contract": "contracts/MLPredictionOracle.sol:MLPredictionOracle",
        "label": "_roles",
        "offset": 0,
        "slot": "0",
        "type": "t_mapping(t_bytes32,t_struct(RoleData)67_storage)"
      },
      {
        "astId": 1946,
        "contract": "contracts/MLPredictionOracle.sol:MLPredictionOracle",
        "label": "_paused",
        "offset": 0,
        "slot": "1",
        "type": "t_bool"
      },
      {
        "astId": 3190,
        "contract": "contracts/MLPredictionOracle.sol:MLPredictionOracle",
        "label": "latestPrediction",
        "offset": 0,
        "slot": "2",
        "type": "t_struct(Prediction)3187_storage"
      }
    ],
    "types": {
      "t_address": {
        "encoding": "inplace",
        "label": "address",
        "numberOfBytes": "20"
      },
      "t_bool": {
        "encoding": "inplace",
        "label": "bool",
        "numberOfBytes": "1"
      },
      "t_bytes32": {
        "encoding": "inplace",
        "label": "bytes32",
        "numberOfBytes": "32"
      },
      "t_mapping(t_address,t_bool)": {
        "encoding": "mapping",
        "key": "t_address",
        "label": "mapping(address => bool)",
        "numberOfBytes": "32",
        "value": "t_bool"
      },
      "t_mapping(t_address,t_uint256)": {
        "encoding": "mapping",
        "key": "t_address",
        "label": "mapping(address => uint256)",
        "numberOfBytes": "32",
        "value": "t_uint256"
      },
      "t_mapping(t_bytes32,t_struct(RoleData)67_storage)": {
        "encoding": "mapping",
        "key": "t_bytes32",
        "label": "mapping(bytes32 => struct AccessControl.RoleData)",
        "numberOfBytes": "32",
        "value": "t_struct(RoleData)67_storage"
      },
      "t_struct(Prediction)3187_storage": {
        "encoding": "inplace",
        "label": "struct MLPredictionOracle.Prediction",
        "members": [
          {
            "astId": 3180,
            "contract": "contracts/MLPredictionOracle.sol:MLPredictionOracle",
            "label": "timestamp",
            "offset": 0,
            "slot": "0",
            "type": "t_uint256"
          },
          {
            "astId": 3184,
            "contract": "contracts/MLPredictionOracle.sol:MLPredictionOracle",
            "label": "assetWeights",
            "offset": 0,
            "slot": "1",
            "type": "t_mapping(t_address,t_uint256)"
          },
          {
            "astId": 3186,
            "contract": "contracts/MLPredictionOracle.sol:MLPredictionOracle",
            "label": "tablelandHash",
            "offset": 0,
            "slot": "2",
            "type": "t_bytes32"
          }
        ],
        "numberOfBytes": "96"
      },
      "t_struct(RoleData)67_storage": {
        "encoding": "inplace",
        "label": "struct AccessControl.RoleData",
        "members": [
          {
            "astId": 64,
            "contract": "contracts/MLPredictionOracle.sol:MLPredictionOracle",
            "label": "hasRole",
            "offset": 0,
            "slot": "0",
            "type": "t_mapping(t_address,t_bool)"
          },
          {
            "astId": 66,
            "contract": "contracts/MLPredictionOracle.sol:MLPredictionOracle",
            "label": "adminRole",
            "offset": 0,
            "slot": "1",
            "type": "t_bytes32"
          }
        ],
        "numberOfBytes": "64"
      },
      "t_uint256": {
        "encoding": "inplace",
        "label": "uint256",
        "numberOfBytes": "32"
      }
    }
  }
}