{
  "address": "0x65C7A92691ce180c32ac316bB6237EE31595408C",
  "abi": [
    {
      "inputs": [
        {
          "internalType": "string",
          "name": "name",
          "type": "string"
        },
        {
          "internalType": "string",
          "name": "symbol",
          "type": "string"
        }
      ],
      "stateMutability": "nonpayable",
      "type": "constructor"
    },
    {
      "inputs": [
        {
          "internalType": "address",
          "name": "spender",
          "type": "address"
        },
        {
          "internalType": "uint256",
          "name": "allowance",
          "type": "uint256"
        },
        {
          "internalType": "uint256",
          "name": "needed",
          "type": "uint256"
        }
      ],
      "name": "ERC20InsufficientAllowance",
      "type": "error"
    },
    {
      "inputs": [
        {
          "internalType": "address",
          "name": "sender",
          "type": "address"
        },
        {
          "internalType": "uint256",
          "name": "balance",
          "type": "uint256"
        },
        {
          "internalType": "uint256",
          "name": "needed",
          "type": "uint256"
        }
      ],
      "name": "ERC20InsufficientBalance",
      "type": "error"
    },
    {
      "inputs": [
        {
          "internalType": "address",
          "name": "approver",
          "type": "address"
        }
      ],
      "name": "ERC20InvalidApprover",
      "type": "error"
    },
    {
      "inputs": [
        {
          "internalType": "address",
          "name": "receiver",
          "type": "address"
        }
      ],
      "name": "ERC20InvalidReceiver",
      "type": "error"
    },
    {
      "inputs": [
        {
          "internalType": "address",
          "name": "sender",
          "type": "address"
        }
      ],
      "name": "ERC20InvalidSender",
      "type": "error"
    },
    {
      "inputs": [
        {
          "internalType": "address",
          "name": "spender",
          "type": "address"
        }
      ],
      "name": "ERC20InvalidSpender",
      "type": "error"
    },
    {
      "inputs": [],
      "name": "EnforcedPause",
      "type": "error"
    },
    {
      "inputs": [],
      "name": "ExpectedPause",
      "type": "error"
    },
    {
      "inputs": [
        {
          "internalType": "address",
          "name": "owner",
          "type": "address"
        }
      ],
      "name": "OwnableInvalidOwner",
      "type": "error"
    },
    {
      "inputs": [
        {
          "internalType": "address",
          "name": "account",
          "type": "address"
        }
      ],
      "name": "OwnableUnauthorizedAccount",
      "type": "error"
    },
    {
      "inputs": [],
      "name": "ReentrancyGuardReentrantCall",
      "type": "error"
    },
    {
      "anonymous": false,
      "inputs": [
        {
          "indexed": true,
          "internalType": "address",
          "name": "owner",
          "type": "address"
        },
        {
          "indexed": true,
          "internalType": "address",
          "name": "spender",
          "type": "address"
        },
        {
          "indexed": false,
          "internalType": "uint256",
          "name": "value",
          "type": "uint256"
        }
      ],
      "name": "Approval",
      "type": "event"
    },
    {
      "anonymous": false,
      "inputs": [
        {
          "indexed": false,
          "internalType": "uint256",
          "name": "newThreshold",
          "type": "uint256"
        }
      ],
      "name": "ApprovalThresholdUpdated",
      "type": "event"
    },
    {
      "anonymous": false,
      "inputs": [
        {
          "indexed": false,
          "internalType": "uint256",
          "name": "newFee",
          "type": "uint256"
        }
      ],
      "name": "ManagementFeeUpdated",
      "type": "event"
    },
    {
      "anonymous": false,
      "inputs": [
        {
          "indexed": true,
          "internalType": "address",
          "name": "previousOwner",
          "type": "address"
        },
        {
          "indexed": true,
          "internalType": "address",
          "name": "newOwner",
          "type": "address"
        }
      ],
      "name": "OwnershipTransferred",
      "type": "event"
    },
    {
      "anonymous": false,
      "inputs": [
        {
          "indexed": false,
          "internalType": "address",
          "name": "account",
          "type": "address"
        }
      ],
      "name": "Paused",
      "type": "event"
    },
    {
      "anonymous": false,
      "inputs": [
        {
          "indexed": false,
          "internalType": "uint256",
          "name": "newFee",
          "type": "uint256"
        }
      ],
      "name": "PerformanceFeeUpdated",
      "type": "event"
    },
    {
      "anonymous": false,
      "inputs": [
        {
          "indexed": true,
          "internalType": "uint256",
          "name": "proposalId",
          "type": "uint256"
        },
        {
          "indexed": false,
          "internalType": "enum SmartPortfolioManager.ProposalType",
          "name": "proposalType",
          "type": "uint8"
        },
        {
          "indexed": false,
          "internalType": "string",
          "name": "description",
          "type": "string"
        }
      ],
      "name": "ProposalCreated",
      "type": "event"
    },
    {
      "anonymous": false,
      "inputs": [
        {
          "indexed": true,
          "internalType": "uint256",
          "name": "proposalId",
          "type": "uint256"
        }
      ],
      "name": "ProposalExecuted",
      "type": "event"
    },
    {
      "anonymous": false,
      "inputs": [
        {
          "indexed": false,
          "internalType": "uint256",
          "name": "newThreshold",
          "type": "uint256"
        }
      ],
      "name": "QuorumThresholdUpdated",
      "type": "event"
    },
    {
      "anonymous": false,
      "inputs": [
        {
          "indexed": true,
          "internalType": "address",
          "name": "from",
          "type": "address"
        },
        {
          "indexed": true,
          "internalType": "address",
          "name": "to",
          "type": "address"
        },
        {
          "indexed": false,
          "internalType": "uint256",
          "name": "value",
          "type": "uint256"
        }
      ],
      "name": "Transfer",
      "type": "event"
    },
    {
      "anonymous": false,
      "inputs": [
        {
          "indexed": false,
          "internalType": "address",
          "name": "account",
          "type": "address"
        }
      ],
      "name": "Unpaused",
      "type": "event"
    },
    {
      "anonymous": false,
      "inputs": [
        {
          "indexed": true,
          "internalType": "uint256",
          "name": "vehicleId",
          "type": "uint256"
        },
        {
          "indexed": false,
          "internalType": "string",
          "name": "name",
          "type": "string"
        }
      ],
      "name": "VehicleAdded",
      "type": "event"
    },
    {
      "anonymous": false,
      "inputs": [
        {
          "indexed": true,
          "internalType": "uint256",
          "name": "vehicleId",
          "type": "uint256"
        }
      ],
      "name": "VehicleRemoved",
      "type": "event"
    },
    {
      "anonymous": false,
      "inputs": [
        {
          "indexed": true,
          "internalType": "address",
          "name": "voter",
          "type": "address"
        },
        {
          "indexed": true,
          "internalType": "uint256",
          "name": "proposalId",
          "type": "uint256"
        },
        {
          "indexed": false,
          "internalType": "bool",
          "name": "support",
          "type": "bool"
        }
      ],
      "name": "Voted",
      "type": "event"
    },
    {
      "anonymous": false,
      "inputs": [
        {
          "indexed": false,
          "internalType": "uint256",
          "name": "newPeriod",
          "type": "uint256"
        }
      ],
      "name": "VotingPeriodUpdated",
      "type": "event"
    },
    {
      "inputs": [],
      "name": "MAX_VEHICLES",
      "outputs": [
        {
          "internalType": "uint256",
          "name": "",
          "type": "uint256"
        }
      ],
      "stateMutability": "view",
      "type": "function"
    },
    {
      "inputs": [
        {
          "internalType": "address",
          "name": "owner",
          "type": "address"
        },
        {
          "internalType": "address",
          "name": "spender",
          "type": "address"
        }
      ],
      "name": "allowance",
      "outputs": [
        {
          "internalType": "uint256",
          "name": "",
          "type": "uint256"
        }
      ],
      "stateMutability": "view",
      "type": "function"
    },
    {
      "inputs": [],
      "name": "approvalThreshold",
      "outputs": [
        {
          "internalType": "uint256",
          "name": "",
          "type": "uint256"
        }
      ],
      "stateMutability": "view",
      "type": "function"
    },
    {
      "inputs": [
        {
          "internalType": "address",
          "name": "spender",
          "type": "address"
        },
        {
          "internalType": "uint256",
          "name": "value",
          "type": "uint256"
        }
      ],
      "name": "approve",
      "outputs": [
        {
          "internalType": "bool",
          "name": "",
          "type": "bool"
        }
      ],
      "stateMutability": "nonpayable",
      "type": "function"
    },
    {
      "inputs": [
        {
          "internalType": "address",
          "name": "account",
          "type": "address"
        }
      ],
      "name": "balanceOf",
      "outputs": [
        {
          "internalType": "uint256",
          "name": "",
          "type": "uint256"
        }
      ],
      "stateMutability": "view",
      "type": "function"
    },
    {
      "inputs": [
        {
          "internalType": "enum SmartPortfolioManager.ProposalType",
          "name": "proposalType",
          "type": "uint8"
        },
        {
          "internalType": "string",
          "name": "description",
          "type": "string"
        },
        {
          "internalType": "bytes",
          "name": "data",
          "type": "bytes"
        }
      ],
      "name": "createProposal",
      "outputs": [],
      "stateMutability": "nonpayable",
      "type": "function"
    },
    {
      "inputs": [],
      "name": "decimals",
      "outputs": [
        {
          "internalType": "uint8",
          "name": "",
          "type": "uint8"
        }
      ],
      "stateMutability": "view",
      "type": "function"
    },
    {
      "inputs": [
        {
          "internalType": "uint256",
          "name": "proposalId",
          "type": "uint256"
        }
      ],
      "name": "executeProposal",
      "outputs": [],
      "stateMutability": "nonpayable",
      "type": "function"
    },
    {
      "inputs": [],
      "name": "managementFee",
      "outputs": [
        {
          "internalType": "uint256",
          "name": "",
          "type": "uint256"
        }
      ],
      "stateMutability": "view",
      "type": "function"
    },
    {
      "inputs": [],
      "name": "name",
      "outputs": [
        {
          "internalType": "string",
          "name": "",
          "type": "string"
        }
      ],
      "stateMutability": "view",
      "type": "function"
    },
    {
      "inputs": [],
      "name": "nextProposalId",
      "outputs": [
        {
          "internalType": "uint256",
          "name": "",
          "type": "uint256"
        }
      ],
      "stateMutability": "view",
      "type": "function"
    },
    {
      "inputs": [],
      "name": "nextVehicleId",
      "outputs": [
        {
          "internalType": "uint256",
          "name": "",
          "type": "uint256"
        }
      ],
      "stateMutability": "view",
      "type": "function"
    },
    {
      "inputs": [],
      "name": "owner",
      "outputs": [
        {
          "internalType": "address",
          "name": "",
          "type": "address"
        }
      ],
      "stateMutability": "view",
      "type": "function"
    },
    {
      "inputs": [],
      "name": "paused",
      "outputs": [
        {
          "internalType": "bool",
          "name": "",
          "type": "bool"
        }
      ],
      "stateMutability": "view",
      "type": "function"
    },
    {
      "inputs": [],
      "name": "performanceFee",
      "outputs": [
        {
          "internalType": "uint256",
          "name": "",
          "type": "uint256"
        }
      ],
      "stateMutability": "view",
      "type": "function"
    },
    {
      "inputs": [
        {
          "internalType": "uint256",
          "name": "",
          "type": "uint256"
        }
      ],
      "name": "proposals",
      "outputs": [
        {
          "internalType": "uint256",
          "name": "id",
          "type": "uint256"
        },
        {
          "internalType": "enum SmartPortfolioManager.ProposalType",
          "name": "proposalType",
          "type": "uint8"
        },
        {
          "internalType": "string",
          "name": "description",
          "type": "string"
        },
        {
          "internalType": "uint256",
          "name": "startTime",
          "type": "uint256"
        },
        {
          "internalType": "uint256",
          "name": "endTime",
          "type": "uint256"
        },
        {
          "internalType": "uint256",
          "name": "forVotes",
          "type": "uint256"
        },
        {
          "internalType": "uint256",
          "name": "againstVotes",
          "type": "uint256"
        },
        {
          "internalType": "bool",
          "name": "executed",
          "type": "bool"
        },
        {
          "internalType": "bytes",
          "name": "data",
          "type": "bytes"
        }
      ],
      "stateMutability": "view",
      "type": "function"
    },
    {
      "inputs": [],
      "name": "quorumThreshold",
      "outputs": [
        {
          "internalType": "uint256",
          "name": "",
          "type": "uint256"
        }
      ],
      "stateMutability": "view",
      "type": "function"
    },
    {
      "inputs": [],
      "name": "renounceOwnership",
      "outputs": [],
      "stateMutability": "nonpayable",
      "type": "function"
    },
    {
      "inputs": [],
      "name": "symbol",
      "outputs": [
        {
          "internalType": "string",
          "name": "",
          "type": "string"
        }
      ],
      "stateMutability": "view",
      "type": "function"
    },
    {
      "inputs": [],
      "name": "totalNav",
      "outputs": [
        {
          "internalType": "uint256",
          "name": "",
          "type": "uint256"
        }
      ],
      "stateMutability": "view",
      "type": "function"
    },
    {
      "inputs": [],
      "name": "totalSupply",
      "outputs": [
        {
          "internalType": "uint256",
          "name": "",
          "type": "uint256"
        }
      ],
      "stateMutability": "view",
      "type": "function"
    },
    {
      "inputs": [
        {
          "internalType": "address",
          "name": "to",
          "type": "address"
        },
        {
          "internalType": "uint256",
          "name": "value",
          "type": "uint256"
        }
      ],
      "name": "transfer",
      "outputs": [
        {
          "internalType": "bool",
          "name": "",
          "type": "bool"
        }
      ],
      "stateMutability": "nonpayable",
      "type": "function"
    },
    {
      "inputs": [
        {
          "internalType": "address",
          "name": "from",
          "type": "address"
        },
        {
          "internalType": "address",
          "name": "to",
          "type": "address"
        },
        {
          "internalType": "uint256",
          "name": "value",
          "type": "uint256"
        }
      ],
      "name": "transferFrom",
      "outputs": [
        {
          "internalType": "bool",
          "name": "",
          "type": "bool"
        }
      ],
      "stateMutability": "nonpayable",
      "type": "function"
    },
    {
      "inputs": [
        {
          "internalType": "address",
          "name": "newOwner",
          "type": "address"
        }
      ],
      "name": "transferOwnership",
      "outputs": [],
      "stateMutability": "nonpayable",
      "type": "function"
    },
    {
      "inputs": [
        {
          "internalType": "uint256",
          "name": "",
          "type": "uint256"
        }
      ],
      "name": "vehicles",
      "outputs": [
        {
          "internalType": "uint256",
          "name": "id",
          "type": "uint256"
        },
        {
          "internalType": "string",
          "name": "name",
          "type": "string"
        },
        {
          "internalType": "uint256",
          "name": "nav",
          "type": "uint256"
        },
        {
          "internalType": "uint256",
          "name": "totalSupply",
          "type": "uint256"
        },
        {
          "internalType": "uint256",
          "name": "lastRebalance",
          "type": "uint256"
        }
      ],
      "stateMutability": "view",
      "type": "function"
    },
    {
      "inputs": [
        {
          "internalType": "uint256",
          "name": "proposalId",
          "type": "uint256"
        },
        {
          "internalType": "bool",
          "name": "support",
          "type": "bool"
        }
      ],
      "name": "vote",
      "outputs": [],
      "stateMutability": "nonpayable",
      "type": "function"
    },
    {
      "inputs": [],
      "name": "votingPeriod",
      "outputs": [
        {
          "internalType": "uint256",
          "name": "",
          "type": "uint256"
        }
      ],
      "stateMutability": "view",
      "type": "function"
    }
  ],
  "transactionHash": "0x40e0514c2b3433f8da2e340499e607255cfa7541376ca4cd6ad9cd981fa4efcd",
  "args": [
    "Smart Portfolio",
    "SPT"
  ],
  "numDeployments": 1,
  "solcInputHash": "c428034acf3f6c6b4e7e42b83f3ea767",
  "bytecode": "0x60806040526203f480600755600a600855603360095560c8600a556107d0600b556001600d556001600e553480156200003757600080fd5b5060405162002097380380620020978339810160408190526200005a91620001ee565b33828260036200006b8382620002e7565b5060046200007a8282620002e7565b50506001600555506006805460ff191690556001600160a01b038116620000bb57604051631e4fbdf760e01b81526000600482015260240160405180910390fd5b620000c681620000cf565b505050620003b3565b600680546001600160a01b03838116610100818102610100600160a81b031985161790945560405193909204169182907f8be0079c531659141344cd1fd0a4f28419497f9722a3daafe3b4186f6b6457e090600090a35050565b634e487b7160e01b600052604160045260246000fd5b600082601f8301126200015157600080fd5b81516001600160401b03808211156200016e576200016e62000129565b604051601f8301601f19908116603f0116810190828211818310171562000199576200019962000129565b81604052838152602092508683858801011115620001b657600080fd5b600091505b83821015620001da5785820183015181830184015290820190620001bb565b600093810190920192909252949350505050565b600080604083850312156200020257600080fd5b82516001600160401b03808211156200021a57600080fd5b62000228868387016200013f565b935060208501519150808211156200023f57600080fd5b506200024e858286016200013f565b9150509250929050565b600181811c908216806200026d57607f821691505b6020821081036200028e57634e487b7160e01b600052602260045260246000fd5b50919050565b601f821115620002e257600081815260208120601f850160051c81016020861015620002bd5750805b601f850160051c820191505b81811015620002de57828155600101620002c9565b5050505b505050565b81516001600160401b0381111562000303576200030362000129565b6200031b8162000314845462000258565b8462000294565b602080601f8311600181146200035357600084156200033a5750858301515b600019600386901b1c1916600185901b178555620002de565b600085815260208120601f198616915b82811015620003845788860151825594840194600190910190840162000363565b5085821015620003a35787850151600019600388901b60f8161c191681555b5050505050600190811b01905550565b611cd480620003c36000396000f3fe608060405234801561001057600080fd5b50600436106101a95760003560e01c8063715018a6116100f9578063a6f7f5d611610097578063b8ba95fa11610071578063b8ba95fa14610347578063c9d27afe1461036b578063dd62ed3e1461037e578063f2fde38b146103b757600080fd5b8063a6f7f5d614610318578063a9059cbb14610321578063b8b510931461033457600080fd5b80637d0eef61116100d35780637d0eef61146102d557806387788782146102de5780638da5cb5b146102e757806395d89b411461031057600080fd5b8063715018a6146102bc5780637616992b146102c45780637b7a91dd146102cc57600080fd5b806323b872dd1161016657806336f90a8c1161014057806336f90a8c146102765780634acdca9f1461027f5780635c975abb1461028857806370a082311461029357600080fd5b806323b872dd1461024b5780632ab09d141461025e578063313ce5671461026757600080fd5b8063013cf08b146101ae57806302a251a3146101df57806306fdde03146101f6578063095ea7b31461020b5780630d61b5191461022e57806318160ddd14610243575b600080fd5b6101c16101bc366004611666565b6103ca565b6040516101d699989796959493929190611707565b60405180910390f35b6101e860075481565b6040519081526020016101d6565b6101fe610532565b6040516101d69190611773565b61021e6102193660046117a2565b6105c4565b60405190151581526020016101d6565b61024161023c366004611666565b6105de565b005b6002546101e8565b61021e6102593660046117ce565b610f2b565b6101e8600e5481565b604051601281526020016101d6565b6101e8600c5481565b6101e8600d5481565b60065460ff1661021e565b6101e86102a136600461180f565b6001600160a01b031660009081526020819052604090205490565b610241610f4f565b6101e8600a81565b6101e860085481565b6101e860095481565b6101e8600b5481565b60065461010090046001600160a01b03166040516001600160a01b0390911681526020016101d6565b6101fe610f63565b6101e8600a5481565b61021e61032f3660046117a2565b610f72565b6102416103423660046118d9565b610f80565b61035a610355366004611666565b61104b565b6040516101d695949392919061197e565b6102416103793660046119b4565b611102565b6101e861038c3660046119e9565b6001600160a01b03918216600090815260016020908152604080832093909416825291909152205490565b6102416103c536600461180f565b61126d565b601060205260009081526040902080546001820154600283018054929360ff909216926103f690611a17565b80601f016020809104026020016040519081016040528092919081815260200182805461042290611a17565b801561046f5780601f106104445761010080835404028352916020019161046f565b820191906000526020600020905b81548152906001019060200180831161045257829003601f168201915b5050505050908060030154908060040154908060050154908060060154908060070160009054906101000a900460ff16908060090180546104af90611a17565b80601f01602080910402602001604051908101604052809291908181526020018280546104db90611a17565b80156105285780601f106104fd57610100808354040283529160200191610528565b820191906000526020600020905b81548152906001019060200180831161050b57829003601f168201915b5050505050905089565b60606003805461054190611a17565b80601f016020809104026020016040519081016040528092919081815260200182805461056d90611a17565b80156105ba5780601f1061058f576101008083540402835291602001916105ba565b820191906000526020600020905b81548152906001019060200180831161059d57829003601f168201915b5050505050905090565b6000336105d28185856112ab565b60019150505b92915050565b6105e66112bd565b60008181526010602052604090206004810154421161064c5760405162461bcd60e51b815260206004820152601760248201527f566f74696e6720706572696f64206e6f7420656e64656400000000000000000060448201526064015b60405180910390fd5b600781015460ff16156106a15760405162461bcd60e51b815260206004820152601960248201527f50726f706f73616c20616c7265616479206578656375746564000000000000006044820152606401610643565b6000816006015482600501546106b79190611a67565b9050600060646008546106c960025490565b6106d39190611a7a565b6106dd9190611a91565b9050808210156107245760405162461bcd60e51b8152602060048201526012602482015271145d5bdc9d5b481b9bdd081c995858da195960721b6044820152606401610643565b600082846005015460646107389190611a7a565b6107429190611a91565b905060095481101561078e5760405162461bcd60e51b8152602060048201526015602482015274141c9bdc1bdcd85b081b9bdd08185c1c1c9bdd9959605a1b6044820152606401610643565b60078401805460ff191660011790556000600185015460ff1660068111156107b8576107b861167f565b036108a15760008460090180546107ce90611a17565b80601f01602080910402602001604051908101604052809291908181526020018280546107fa90611a17565b80156108475780601f1061081c57610100808354040283529160200191610847565b820191906000526020600020905b81548152906001019060200180831161082a57829003601f168201915b505050505080602001905181019061085f9190611ab3565b600a8190556040518181529091507f2147e2bc8c39e67f74b1a9e08896ea1485442096765942206af1f4bc8bcde917906020015b60405180910390a150610ef9565b60018085015460ff1660068111156108bb576108bb61167f565b0361099a5760008460090180546108d190611a17565b80601f01602080910402602001604051908101604052809291908181526020018280546108fd90611a17565b801561094a5780601f1061091f5761010080835404028352916020019161094a565b820191906000526020600020905b81548152906001019060200180831161092d57829003601f168201915b50505050508060200190518101906109629190611ab3565b600b8190556040518181529091507f9b49d0cd76012d9c67241c2f68f836efbaf50ea29901a250040671402d5263f590602001610893565b6002600185015460ff1660068111156109b5576109b561167f565b03610adc576000808560090180546109cc90611a17565b80601f01602080910402602001604051908101604052809291908181526020018280546109f890611a17565b8015610a455780601f10610a1a57610100808354040283529160200191610a45565b820191906000526020600020905b815481529060010190602001808311610a2857829003601f168201915b5050505050806020019051810190610a5d9190611acc565b915091506000600d6000815480929190610a7690611b4f565b909155506000818152600f60205260409020818155909150600101610a9b8482611bb6565b50807f269f5baa88798b226ba05396ab724299859f163fcd95f49400b61d4eaeb4a06884604051610acc9190611773565b60405180910390a2505050610ef9565b6003600185015460ff166006811115610af757610af761167f565b03610c06576000846009018054610b0d90611a17565b80601f0160208091040260200160405190810160405280929190818152602001828054610b3990611a17565b8015610b865780601f10610b5b57610100808354040283529160200191610b86565b820191906000526020600020905b815481529060010190602001808311610b6957829003601f168201915b5050505050806020019051810190610b9e9190611ab3565b6000818152600f60205260408120818155919250610bbf6001830182611618565b5060006002820181905560038201819055600490910181905560405182917f9023ae4d22b56ac64534fdab7547c0f9d26367b9a4a3c6638c474a41b5ba744991a250610ef9565b6004600185015460ff166006811115610c2157610c2161167f565b03610d00576000846009018054610c3790611a17565b80601f0160208091040260200160405190810160405280929190818152602001828054610c6390611a17565b8015610cb05780601f10610c8557610100808354040283529160200191610cb0565b820191906000526020600020905b815481529060010190602001808311610c9357829003601f168201915b5050505050806020019051810190610cc89190611ab3565b60088190556040518181529091507fbc589fccf641d342b7853c2c6faca39631d4d19efbe77e71e5611e31678c220e90602001610893565b6005600185015460ff166006811115610d1b57610d1b61167f565b03610dfa576000846009018054610d3190611a17565b80601f0160208091040260200160405190810160405280929190818152602001828054610d5d90611a17565b8015610daa5780601f10610d7f57610100808354040283529160200191610daa565b820191906000526020600020905b815481529060010190602001808311610d8d57829003601f168201915b5050505050806020019051810190610dc29190611ab3565b60098190556040518181529091507f3105a3dc553e12034caac9827a83c245fe17eef4ee1eedb45238ac7449a5bbec90602001610893565b6006600185015460ff166006811115610e1557610e1561167f565b03610ef9576000846009018054610e2b90611a17565b80601f0160208091040260200160405190810160405280929190818152602001828054610e5790611a17565b8015610ea45780601f10610e7957610100808354040283529160200191610ea4565b820191906000526020600020905b815481529060010190602001808311610e8757829003601f168201915b5050505050806020019051810190610ebc9190611ab3565b60078190556040518181529091507f651c77f42613a075437aa794c44471e3abc3a661956a67aaee165bb7396974aa9060200160405180910390a1505b60405185907f712ae1383f79ac853f8d882153778e0260ef8f03b504e2866e0593e04d2b291f90600090a25050505050565b600033610f398582856112f0565b610f4485858561136e565b506001949350505050565b610f576112bd565b610f6160006113cd565b565b60606004805461054190611a17565b6000336105d281858561136e565b600e805460009182610f9183611b4f565b90915550600081815260106020526040902081815560018082018054939450919287929160ff1990911690836006811115610fce57610fce61167f565b021790555060028101610fe18582611bb6565b504260038201819055600754610ff691611a67565b6004820155600981016110098482611bb6565b50817f2d6a2a1a504050a1fa6107e44f49971fd89dbe544b433d65f1c572ce5fa3b7d1868660405161103c929190611c76565b60405180910390a25050505050565b600f602052600090815260409020805460018201805491929161106d90611a17565b80601f016020809104026020016040519081016040528092919081815260200182805461109990611a17565b80156110e65780601f106110bb576101008083540402835291602001916110e6565b820191906000526020600020905b8154815290600101906020018083116110c957829003601f168201915b5050505050908060020154908060030154908060040154905085565b600082815260106020526040902060038101544210801590611128575080600401544211155b61116b5760405162461bcd60e51b8152602060048201526014602482015273566f74696e67206973206e6f742061637469766560601b6044820152606401610643565b33600090815260088201602052604090205460ff16156111bd5760405162461bcd60e51b815260206004820152600d60248201526c105b1c9958591e481d9bdd1959609a1b6044820152606401610643565b3360009081526020819052604090205482156111f257808260050160008282546111e79190611a67565b9091555061120c9050565b808260060160008282546112069190611a67565b90915550505b33600081815260088401602052604090819020805460ff19166001179055518591907f749addf8eadeff63c43be59c27331be5c6d4fc9e82bbfbcf162321c9b35a95b49061125f90871515815260200190565b60405180910390a350505050565b6112756112bd565b6001600160a01b03811661129f57604051631e4fbdf760e01b815260006004820152602401610643565b6112a8816113cd565b50565b6112b88383836001611427565b505050565b6006546001600160a01b03610100909104163314610f615760405163118cdaa760e01b8152336004820152602401610643565b6001600160a01b038381166000908152600160209081526040808320938616835292905220546000198114611368578181101561135957604051637dc7a0d960e11b81526001600160a01b03841660048201526024810182905260448101839052606401610643565b61136884848484036000611427565b50505050565b6001600160a01b03831661139857604051634b637e8f60e11b815260006004820152602401610643565b6001600160a01b0382166113c25760405163ec442f0560e01b815260006004820152602401610643565b6112b88383836114ee565b600680546001600160a01b03838116610100818102610100600160a81b031985161790945560405193909204169182907f8be0079c531659141344cd1fd0a4f28419497f9722a3daafe3b4186f6b6457e090600090a35050565b6001600160a01b0384166114515760405163e602df0560e01b815260006004820152602401610643565b6001600160a01b03831661147b57604051634a1406b160e11b815260006004820152602401610643565b6001600160a01b038085166000908152600160209081526040808320938716835292905220829055801561136857826001600160a01b0316846001600160a01b03167f8c5be1e5ebec7d5bd14f71427d1e84f3dd0314c0f7b2291e5b200ac8c7c3b9258460405161125f91815260200190565b6001600160a01b03831661151957806002600082825461150e9190611a67565b9091555061158b9050565b6001600160a01b0383166000908152602081905260409020548181101561156c5760405163391434e360e21b81526001600160a01b03851660048201526024810182905260448101839052606401610643565b6001600160a01b03841660009081526020819052604090209082900390555b6001600160a01b0382166115a7576002805482900390556115c6565b6001600160a01b03821660009081526020819052604090208054820190555b816001600160a01b0316836001600160a01b03167fddf252ad1be2c89b69c2b068fc378daa952ba7f163c4a11628f55a4df523b3ef8360405161160b91815260200190565b60405180910390a3505050565b50805461162490611a17565b6000825580601f10611634575050565b601f0160209004906000526020600020908101906112a891905b80821115611662576000815560010161164e565b5090565b60006020828403121561167857600080fd5b5035919050565b634e487b7160e01b600052602160045260246000fd5b600781106116b357634e487b7160e01b600052602160045260246000fd5b9052565b60005b838110156116d25781810151838201526020016116ba565b50506000910152565b600081518084526116f38160208601602086016116b7565b601f01601f19169290920160200192915050565b60006101208b835261171c602084018c611695565b80604084015261172e8184018b6116db565b90508860608401528760808401528660a08401528560c084015284151560e084015282810361010084015261176381856116db565b9c9b505050505050505050505050565b60208152600061178660208301846116db565b9392505050565b6001600160a01b03811681146112a857600080fd5b600080604083850312156117b557600080fd5b82356117c08161178d565b946020939093013593505050565b6000806000606084860312156117e357600080fd5b83356117ee8161178d565b925060208401356117fe8161178d565b929592945050506040919091013590565b60006020828403121561182157600080fd5b81356117868161178d565b634e487b7160e01b600052604160045260246000fd5b604051601f8201601f1916810167ffffffffffffffff8111828210171561186b5761186b61182c565b604052919050565b600067ffffffffffffffff82111561188d5761188d61182c565b50601f01601f191660200190565b60006118ae6118a984611873565b611842565b90508281528383830111156118c257600080fd5b828260208301376000602084830101529392505050565b6000806000606084860312156118ee57600080fd5b8335600781106118fd57600080fd5b9250602084013567ffffffffffffffff8082111561191a57600080fd5b818601915086601f83011261192e57600080fd5b61193d8783356020850161189b565b9350604086013591508082111561195357600080fd5b508401601f8101861361196557600080fd5b6119748682356020840161189b565b9150509250925092565b85815260a06020820152600061199760a08301876116db565b604083019590955250606081019290925260809091015292915050565b600080604083850312156119c757600080fd5b82359150602083013580151581146119de57600080fd5b809150509250929050565b600080604083850312156119fc57600080fd5b8235611a078161178d565b915060208301356119de8161178d565b600181811c90821680611a2b57607f821691505b602082108103611a4b57634e487b7160e01b600052602260045260246000fd5b50919050565b634e487b7160e01b600052601160045260246000fd5b808201808211156105d8576105d8611a51565b80820281158282048414176105d8576105d8611a51565b600082611aae57634e487b7160e01b600052601260045260246000fd5b500490565b600060208284031215611ac557600080fd5b5051919050565b60008060408385031215611adf57600080fd5b825167ffffffffffffffff811115611af657600080fd5b8301601f81018513611b0757600080fd5b8051611b156118a982611873565b818152866020838501011115611b2a57600080fd5b611b3b8260208301602086016116b7565b80945050505060208301516119de8161178d565b600060018201611b6157611b61611a51565b5060010190565b601f8211156112b857600081815260208120601f850160051c81016020861015611b8f5750805b601f850160051c820191505b81811015611bae57828155600101611b9b565b505050505050565b815167ffffffffffffffff811115611bd057611bd061182c565b611be481611bde8454611a17565b84611b68565b602080601f831160018114611c195760008415611c015750858301515b600019600386901b1c1916600185901b178555611bae565b600085815260208120601f198616915b82811015611c4857888601518255948401946001909101908401611c29565b5085821015611c665787850151600019600388901b60f8161c191681555b5050505050600190811b01905550565b611c808184611695565b604060208201526000611c9660408301846116db565b94935050505056fea2646970667358221220e8319d4656f2f20e6a76f89bbade184f9d48289fc67b9ede786510d893165ec664736f6c63430008140033",
  "devdoc": {
    "errors": {
      "ERC20InsufficientAllowance(address,uint256,uint256)": [
        {
          "details": "Indicates a failure with the `spender`s `allowance`. Used in transfers.",
          "params": {
            "allowance": "Amount of tokens a `spender` is allowed to operate with.",
            "needed": "Minimum amount required to perform a transfer.",
            "spender": "Address that may be allowed to operate on tokens without being their owner."
          }
        }
      ],
      "ERC20InsufficientBalance(address,uint256,uint256)": [
        {
          "details": "Indicates an error related to the current `balance` of a `sender`. Used in transfers.",
          "params": {
            "balance": "Current balance for the interacting account.",
            "needed": "Minimum amount required to perform a transfer.",
            "sender": "Address whose tokens are being transferred."
          }
        }
      ],
      "ERC20InvalidApprover(address)": [
        {
          "details": "Indicates a failure with the `approver` of a token to be approved. Used in approvals.",
          "params": {
            "approver": "Address initiating an approval operation."
          }
        }
      ],
      "ERC20InvalidReceiver(address)": [
        {
          "details": "Indicates a failure with the token `receiver`. Used in transfers.",
          "params": {
            "receiver": "Address to which tokens are being transferred."
          }
        }
      ],
      "ERC20InvalidSender(address)": [
        {
          "details": "Indicates a failure with the token `sender`. Used in transfers.",
          "params": {
            "sender": "Address whose tokens are being transferred."
          }
        }
      ],
      "ERC20InvalidSpender(address)": [
        {
          "details": "Indicates a failure with the `spender` to be approved. Used in approvals.",
          "params": {
            "spender": "Address that may be allowed to operate on tokens without being their owner."
          }
        }
      ],
      "EnforcedPause()": [
        {
          "details": "The operation failed because the contract is paused."
        }
      ],
      "ExpectedPause()": [
        {
          "details": "The operation failed because the contract is not paused."
        }
      ],
      "OwnableInvalidOwner(address)": [
        {
          "details": "The owner is not a valid owner account. (eg. `address(0)`)"
        }
      ],
      "OwnableUnauthorizedAccount(address)": [
        {
          "details": "The caller account is not authorized to perform an operation."
        }
      ],
      "ReentrancyGuardReentrantCall()": [
        {
          "details": "Unauthorized reentrant call."
        }
      ]
    },
    "events": {
      "Approval(address,address,uint256)": {
        "details": "Emitted when the allowance of a `spender` for an `owner` is set by a call to {approve}. `value` is the new allowance."
      },
      "Paused(address)": {
        "details": "Emitted when the pause is triggered by `account`."
      },
      "Transfer(address,address,uint256)": {
        "details": "Emitted when `value` tokens are moved from one account (`from`) to another (`to`). Note that `value` may be zero."
      },
      "Unpaused(address)": {
        "details": "Emitted when the pause is lifted by `account`."
      }
    },
    "kind": "dev",
    "methods": {
      "allowance(address,address)": {
        "details": "See {IERC20-allowance}."
      },
      "approve(address,uint256)": {
        "details": "See {IERC20-approve}. NOTE: If `value` is the maximum `uint256`, the allowance is not updated on `transferFrom`. This is semantically equivalent to an infinite approval. Requirements: - `spender` cannot be the zero address."
      },
      "balanceOf(address)": {
        "details": "See {IERC20-balanceOf}."
      },
      "decimals()": {
        "details": "Returns the number of decimals used to get its user representation. For example, if `decimals` equals `2`, a balance of `505` tokens should be displayed to a user as `5.05` (`505 / 10 ** 2`). Tokens usually opt for a value of 18, imitating the relationship between Ether and Wei. This is the default value returned by this function, unless it's overridden. NOTE: This information is only used for _display_ purposes: it in no way affects any of the arithmetic of the contract, including {IERC20-balanceOf} and {IERC20-transfer}."
      },
      "name()": {
        "details": "Returns the name of the token."
      },
      "owner()": {
        "details": "Returns the address of the current owner."
      },
      "paused()": {
        "details": "Returns true if the contract is paused, and false otherwise."
      },
      "renounceOwnership()": {
        "details": "Leaves the contract without owner. It will not be possible to call `onlyOwner` functions. Can only be called by the current owner. NOTE: Renouncing ownership will leave the contract without an owner, thereby disabling any functionality that is only available to the owner."
      },
      "symbol()": {
        "details": "Returns the symbol of the token, usually a shorter version of the name."
      },
      "totalSupply()": {
        "details": "See {IERC20-totalSupply}."
      },
      "transfer(address,uint256)": {
        "details": "See {IERC20-transfer}. Requirements: - `to` cannot be the zero address. - the caller must have a balance of at least `value`."
      },
      "transferFrom(address,address,uint256)": {
        "details": "See {IERC20-transferFrom}. Emits an {Approval} event indicating the updated allowance. This is not required by the EIP. See the note at the beginning of {ERC20}. NOTE: Does not update the allowance if the current allowance is the maximum `uint256`. Requirements: - `from` and `to` cannot be the zero address. - `from` must have a balance of at least `value`. - the caller must have allowance for ``from``'s tokens of at least `value`."
      },
      "transferOwnership(address)": {
        "details": "Transfers ownership of the contract to a new account (`newOwner`). Can only be called by the current owner."
      }
    },
    "version": 1
  },
  "userdoc": {
    "kind": "user",
    "methods": {},
    "version": 1
  },
  "storageLayout": {
    "storage": [
      {
        "astId": 732,
        "contract": "contracts/SmartPortfolioManager.sol:SmartPortfolioManager",
        "label": "_balances",
        "offset": 0,
        "slot": "0",
        "type": "t_mapping(t_address,t_uint256)"
      },
      {
        "astId": 738,
        "contract": "contracts/SmartPortfolioManager.sol:SmartPortfolioManager",
        "label": "_allowances",
        "offset": 0,
        "slot": "1",
        "type": "t_mapping(t_address,t_mapping(t_address,t_uint256))"
      },
      {
        "astId": 740,
        "contract": "contracts/SmartPortfolioManager.sol:SmartPortfolioManager",
        "label": "_totalSupply",
        "offset": 0,
        "slot": "2",
        "type": "t_uint256"
      },
      {
        "astId": 742,
        "contract": "contracts/SmartPortfolioManager.sol:SmartPortfolioManager",
        "label": "_name",
        "offset": 0,
        "slot": "3",
        "type": "t_string_storage"
      },
      {
        "astId": 744,
        "contract": "contracts/SmartPortfolioManager.sol:SmartPortfolioManager",
        "label": "_symbol",
        "offset": 0,
        "slot": "4",
        "type": "t_string_storage"
      },
      {
        "astId": 2065,
        "contract": "contracts/SmartPortfolioManager.sol:SmartPortfolioManager",
        "label": "_status",
        "offset": 0,
        "slot": "5",
        "type": "t_uint256"
      },
      {
        "astId": 1946,
        "contract": "contracts/SmartPortfolioManager.sol:SmartPortfolioManager",
        "label": "_paused",
        "offset": 0,
        "slot": "6",
        "type": "t_bool"
      },
      {
        "astId": 433,
        "contract": "contracts/SmartPortfolioManager.sol:SmartPortfolioManager",
        "label": "_owner",
        "offset": 1,
        "slot": "6",
        "type": "t_address"
      },
      {
        "astId": 3301,
        "contract": "contracts/SmartPortfolioManager.sol:SmartPortfolioManager",
        "label": "votingPeriod",
        "offset": 0,
        "slot": "7",
        "type": "t_uint256"
      },
      {
        "astId": 3304,
        "contract": "contracts/SmartPortfolioManager.sol:SmartPortfolioManager",
        "label": "quorumThreshold",
        "offset": 0,
        "slot": "8",
        "type": "t_uint256"
      },
      {
        "astId": 3307,
        "contract": "contracts/SmartPortfolioManager.sol:SmartPortfolioManager",
        "label": "approvalThreshold",
        "offset": 0,
        "slot": "9",
        "type": "t_uint256"
      },
      {
        "astId": 3310,
        "contract": "contracts/SmartPortfolioManager.sol:SmartPortfolioManager",
        "label": "managementFee",
        "offset": 0,
        "slot": "10",
        "type": "t_uint256"
      },
      {
        "astId": 3313,
        "contract": "contracts/SmartPortfolioManager.sol:SmartPortfolioManager",
        "label": "performanceFee",
        "offset": 0,
        "slot": "11",
        "type": "t_uint256"
      },
      {
        "astId": 3315,
        "contract": "contracts/SmartPortfolioManager.sol:SmartPortfolioManager",
        "label": "totalNav",
        "offset": 0,
        "slot": "12",
        "type": "t_uint256"
      },
      {
        "astId": 3318,
        "contract": "contracts/SmartPortfolioManager.sol:SmartPortfolioManager",
        "label": "nextVehicleId",
        "offset": 0,
        "slot": "13",
        "type": "t_uint256"
      },
      {
        "astId": 3321,
        "contract": "contracts/SmartPortfolioManager.sol:SmartPortfolioManager",
        "label": "nextProposalId",
        "offset": 0,
        "slot": "14",
        "type": "t_uint256"
      },
      {
        "astId": 3326,
        "contract": "contracts/SmartPortfolioManager.sol:SmartPortfolioManager",
        "label": "vehicles",
        "offset": 0,
        "slot": "15",
        "type": "t_mapping(t_uint256,t_struct(Vehicle)3271_storage)"
      },
      {
        "astId": 3331,
        "contract": "contracts/SmartPortfolioManager.sol:SmartPortfolioManager",
        "label": "proposals",
        "offset": 0,
        "slot": "16",
        "type": "t_mapping(t_uint256,t_struct(Proposal)3295_storage)"
      }
    ],
    "types": {
      "t_address": {
        "encoding": "inplace",
        "label": "address",
        "numberOfBytes": "20"
      },
      "t_bool": {
        "encoding": "inplace",
        "label": "bool",
        "numberOfBytes": "1"
      },
      "t_bytes_storage": {
        "encoding": "bytes",
        "label": "bytes",
        "numberOfBytes": "32"
      },
      "t_enum(ProposalType)3256": {
        "encoding": "inplace",
        "label": "enum SmartPortfolioManager.ProposalType",
        "numberOfBytes": "1"
      },
      "t_mapping(t_address,t_bool)": {
        "encoding": "mapping",
        "key": "t_address",
        "label": "mapping(address => bool)",
        "numberOfBytes": "32",
        "value": "t_bool"
      },
      "t_mapping(t_address,t_mapping(t_address,t_uint256))": {
        "encoding": "mapping",
        "key": "t_address",
        "label": "mapping(address => mapping(address => uint256))",
        "numberOfBytes": "32",
        "value": "t_mapping(t_address,t_uint256)"
      },
      "t_mapping(t_address,t_uint256)": {
        "encoding": "mapping",
        "key": "t_address",
        "label": "mapping(address => uint256)",
        "numberOfBytes": "32",
        "value": "t_uint256"
      },
      "t_mapping(t_uint256,t_struct(Proposal)3295_storage)": {
        "encoding": "mapping",
        "key": "t_uint256",
        "label": "mapping(uint256 => struct SmartPortfolioManager.Proposal)",
        "numberOfBytes": "32",
        "value": "t_struct(Proposal)3295_storage"
      },
      "t_mapping(t_uint256,t_struct(Vehicle)3271_storage)": {
        "encoding": "mapping",
        "key": "t_uint256",
        "label": "mapping(uint256 => struct SmartPortfolioManager.Vehicle)",
        "numberOfBytes": "32",
        "value": "t_struct(Vehicle)3271_storage"
      },
      "t_string_storage": {
        "encoding": "bytes",
        "label": "string",
        "numberOfBytes": "32"
      },
      "t_struct(Proposal)3295_storage": {
        "encoding": "inplace",
        "label": "struct SmartPortfolioManager.Proposal",
        "members": [
          {
            "astId": 3273,
            "contract": "contracts/SmartPortfolioManager.sol:SmartPortfolioManager",
            "label": "id",
            "offset": 0,
            "slot": "0",
            "type": "t_uint256"
          },
          {
            "astId": 3276,
            "contract": "contracts/SmartPortfolioManager.sol:SmartPortfolioManager",
            "label": "proposalType",
            "offset": 0,
            "slot": "1",
            "type": "t_enum(ProposalType)3256"
          },
          {
            "astId": 3278,
            "contract": "contracts/SmartPortfolioManager.sol:SmartPortfolioManager",
            "label": "description",
            "offset": 0,
            "slot": "2",
            "type": "t_string_storage"
          },
          {
            "astId": 3280,
            "contract": "contracts/SmartPortfolioManager.sol:SmartPortfolioManager",
            "label": "startTime",
            "offset": 0,
            "slot": "3",
            "type": "t_uint256"
          },
          {
            "astId": 3282,
            "contract": "contracts/SmartPortfolioManager.sol:SmartPortfolioManager",
            "label": "endTime",
            "offset": 0,
            "slot": "4",
            "type": "t_uint256"
          },
          {
            "astId": 3284,
            "contract": "contracts/SmartPortfolioManager.sol:SmartPortfolioManager",
            "label": "forVotes",
            "offset": 0,
            "slot": "5",
            "type": "t_uint256"
          },
          {
            "astId": 3286,
            "contract": "contracts/SmartPortfolioManager.sol:SmartPortfolioManager",
            "label": "againstVotes",
            "offset": 0,
            "slot": "6",
            "type": "t_uint256"
          },
          {
            "astId": 3288,
            "contract": "contracts/SmartPortfolioManager.sol:SmartPortfolioManager",
            "label": "executed",
            "offset": 0,
            "slot": "7",
            "type": "t_bool"
          },
          {
            "astId": 3292,
            "contract": "contracts/SmartPortfolioManager.sol:SmartPortfolioManager",
            "label": "hasVoted",
            "offset": 0,
            "slot": "8",
            "type": "t_mapping(t_address,t_bool)"
          },
          {
            "astId": 3294,
            "contract": "contracts/SmartPortfolioManager.sol:SmartPortfolioManager",
            "label": "data",
            "offset": 0,
            "slot": "9",
            "type": "t_bytes_storage"
          }
        ],
        "numberOfBytes": "320"
      },
      "t_struct(Vehicle)3271_storage": {
        "encoding": "inplace",
        "label": "struct SmartPortfolioManager.Vehicle",
        "members": [
          {
            "astId": 3258,
            "contract": "contracts/SmartPortfolioManager.sol:SmartPortfolioManager",
            "label": "id",
            "offset": 0,
            "slot": "0",
            "type": "t_uint256"
          },
          {
            "astId": 3260,
            "contract": "contracts/SmartPortfolioManager.sol:SmartPortfolioManager",
            "label": "name",
            "offset": 0,
            "slot": "1",
            "type": "t_string_storage"
          },
          {
            "astId": 3262,
            "contract": "contracts/SmartPortfolioManager.sol:SmartPortfolioManager",
            "label": "nav",
            "offset": 0,
            "slot": "2",
            "type": "t_uint256"
          },
          {
            "astId": 3264,
            "contract": "contracts/SmartPortfolioManager.sol:SmartPortfolioManager",
            "label": "totalSupply",
            "offset": 0,
            "slot": "3",
            "type": "t_uint256"
          },
          {
            "astId": 3266,
            "contract": "contracts/SmartPortfolioManager.sol:SmartPortfolioManager",
            "label": "lastRebalance",
            "offset": 0,
            "slot": "4",
            "type": "t_uint256"
          },
          {
            "astId": 3270,
            "contract": "contracts/SmartPortfolioManager.sol:SmartPortfolioManager",
            "label": "balances",
            "offset": 0,
            "slot": "5",
            "type": "t_mapping(t_address,t_uint256)"
          }
        ],
        "numberOfBytes": "192"
      },
      "t_uint256": {
        "encoding": "inplace",
        "label": "uint256",
        "numberOfBytes": "32"
      }
    }
  }
}