{
  "address": "0x19c144196051b72F40dF0F70a9a48b4e871cD851",
  "abi": [
    {
      "inputs": [
        {
          "internalType": "contract ISwapRouter",
          "name": "_swapRouter",
          "type": "address"
        }
      ],
      "stateMutability": "nonpayable",
      "type": "constructor"
    },
    {
      "inputs": [
        {
          "internalType": "address",
          "name": "target",
          "type": "address"
        }
      ],
      "name": "AddressEmptyCode",
      "type": "error"
    },
    {
      "inputs": [
        {
          "internalType": "address",
          "name": "account",
          "type": "address"
        }
      ],
      "name": "AddressInsufficientBalance",
      "type": "error"
    },
    {
      "inputs": [],
      "name": "FailedInnerCall",
      "type": "error"
    },
    {
      "inputs": [
        {
          "internalType": "address",
          "name": "owner",
          "type": "address"
        }
      ],
      "name": "OwnableInvalidOwner",
      "type": "error"
    },
    {
      "inputs": [
        {
          "internalType": "address",
          "name": "account",
          "type": "address"
        }
      ],
      "name": "OwnableUnauthorizedAccount",
      "type": "error"
    },
    {
      "inputs": [
        {
          "internalType": "address",
          "name": "token",
          "type": "address"
        }
      ],
      "name": "SafeERC20FailedOperation",
      "type": "error"
    },
    {
      "anonymous": false,
      "inputs": [
        {
          "indexed": true,
          "internalType": "address",
          "name": "previousOwner",
          "type": "address"
        },
        {
          "indexed": true,
          "internalType": "address",
          "name": "newOwner",
          "type": "address"
        }
      ],
      "name": "OwnershipTransferred",
      "type": "event"
    },
    {
      "anonymous": false,
      "inputs": [
        {
          "indexed": true,
          "internalType": "address",
          "name": "tokenIn",
          "type": "address"
        },
        {
          "indexed": true,
          "internalType": "address",
          "name": "tokenOut",
          "type": "address"
        },
        {
          "indexed": false,
          "internalType": "uint256",
          "name": "amountIn",
          "type": "uint256"
        },
        {
          "indexed": false,
          "internalType": "uint256",
          "name": "amountOut",
          "type": "uint256"
        }
      ],
      "name": "Swapped",
      "type": "event"
    },
    {
      "inputs": [],
      "name": "WETH9",
      "outputs": [
        {
          "internalType": "address",
          "name": "",
          "type": "address"
        }
      ],
      "stateMutability": "view",
      "type": "function"
    },
    {
      "inputs": [
        {
          "internalType": "address",
          "name": "",
          "type": "address"
        },
        {
          "internalType": "address",
          "name": "",
          "type": "address"
        },
        {
          "internalType": "uint256",
          "name": "amountIn",
          "type": "uint256"
        }
      ],
      "name": "estimateAmountOut",
      "outputs": [
        {
          "internalType": "uint256",
          "name": "amountOut",
          "type": "uint256"
        }
      ],
      "stateMutability": "pure",
      "type": "function"
    },
    {
      "inputs": [],
      "name": "owner",
      "outputs": [
        {
          "internalType": "address",
          "name": "",
          "type": "address"
        }
      ],
      "stateMutability": "view",
      "type": "function"
    },
    {
      "inputs": [],
      "name": "poolFee",
      "outputs": [
        {
          "internalType": "uint24",
          "name": "",
          "type": "uint24"
        }
      ],
      "stateMutability": "view",
      "type": "function"
    },
    {
      "inputs": [],
      "name": "renounceOwnership",
      "outputs": [],
      "stateMutability": "nonpayable",
      "type": "function"
    },
    {
      "inputs": [
        {
          "internalType": "address",
          "name": "token",
          "type": "address"
        },
        {
          "internalType": "uint256",
          "name": "amount",
          "type": "uint256"
        }
      ],
      "name": "rescueTokens",
      "outputs": [],
      "stateMutability": "nonpayable",
      "type": "function"
    },
    {
      "inputs": [
        {
          "internalType": "address",
          "name": "tokenIn",
          "type": "address"
        },
        {
          "internalType": "address",
          "name": "tokenOut",
          "type": "address"
        },
        {
          "internalType": "uint256",
          "name": "amountIn",
          "type": "uint256"
        },
        {
          "internalType": "uint256",
          "name": "amountOutMinimum",
          "type": "uint256"
        }
      ],
      "name": "swapExactInputSingle",
      "outputs": [
        {
          "internalType": "uint256",
          "name": "amountOut",
          "type": "uint256"
        }
      ],
      "stateMutability": "nonpayable",
      "type": "function"
    },
    {
      "inputs": [
        {
          "internalType": "address",
          "name": "tokenIn",
          "type": "address"
        },
        {
          "internalType": "address",
          "name": "tokenOut",
          "type": "address"
        },
        {
          "internalType": "uint256",
          "name": "amountOut",
          "type": "uint256"
        },
        {
          "internalType": "uint256",
          "name": "amountInMaximum",
          "type": "uint256"
        }
      ],
      "name": "swapExactOutputSingle",
      "outputs": [
        {
          "internalType": "uint256",
          "name": "amountIn",
          "type": "uint256"
        }
      ],
      "stateMutability": "nonpayable",
      "type": "function"
    },
    {
      "inputs": [],
      "name": "swapRouter",
      "outputs": [
        {
          "internalType": "contract ISwapRouter",
          "name": "",
          "type": "address"
        }
      ],
      "stateMutability": "view",
      "type": "function"
    },
    {
      "inputs": [
        {
          "internalType": "address",
          "name": "newOwner",
          "type": "address"
        }
      ],
      "name": "transferOwnership",
      "outputs": [],
      "stateMutability": "nonpayable",
      "type": "function"
    }
  ],
  "transactionHash": "0x75365d76c7702f06002f0a0c9c54de1ba10bb6a72467e7da418d8d7c25ed5128",
  "args": [
    "0x3fC91A3afd70395Cd496C647d5a6CC9D4B2b7FAD"
  ],
  "numDeployments": 2,
  "solcInputHash": "cc04476410472759b8fd620d2124f2ab",
  "bytecode": "0x60a060405234801561001057600080fd5b50604051610dff380380610dff83398101604081905261002f916100c0565b338061005557604051631e4fbdf760e01b81526000600482015260240160405180910390fd5b61005e81610070565b506001600160a01b03166080526100f0565b600080546001600160a01b038381166001600160a01b0319831681178455604051919092169283917f8be0079c531659141344cd1fd0a4f28419497f9722a3daafe3b4186f6b6457e09190a35050565b6000602082840312156100d257600080fd5b81516001600160a01b03811681146100e957600080fd5b9392505050565b608051610cd161012e60003960008181610172015281816102120152818161028f015281816103840152818161040101526104890152610cd16000f3fe608060405234801561001057600080fd5b506004361061009e5760003560e01c80639e5f76a9116100665780639e5f76a914610126578063ba25d3e914610147578063bc96faa91461015a578063c31c9c071461016d578063f2fde38b1461019457600080fd5b8063089fe6aa146100a35780634aa4a4fc146100c557806357376198146100f8578063715018a61461010d5780638da5cb5b14610115575b600080fd5b6100ac610bb881565b60405162ffffff90911681526020015b60405180910390f35b6100e073c02aaa39b223fe8d0a0e5c4f27ead9083c756cc281565b6040516001600160a01b0390911681526020016100bc565b61010b610106366004610ae3565b6101a7565b005b61010b6101d9565b6000546001600160a01b03166100e0565b610139610134366004610b0d565b6101ed565b6040519081526020016100bc565b610139610155366004610b49565b6101f6565b610139610168366004610b49565b610368565b6100e07f000000000000000000000000000000000000000000000000000000000000000081565b61010b6101a2366004610b8b565b610511565b6101af610554565b6101d56101c46000546001600160a01b031690565b6001600160a01b0384169083610581565b5050565b6101e1610554565b6101eb60006105d8565b565b805b9392505050565b6000610200610554565b61020c85333086610628565b610237857f000000000000000000000000000000000000000000000000000000000000000085610732565b60408051610100810182526001600160a01b0380881682528681166020830152610bb88284015233606083015242608083015260a0820186905260c08201859052600060e0830152915163414bf38960e01b815290917f0000000000000000000000000000000000000000000000000000000000000000169063414bf389906102c4908490600401610ba6565b6020604051808303816000875af11580156102e3573d6000803e3d6000fd5b505050506040513d601f19601f820116820180604052508101906103079190610c10565b9150846001600160a01b0316866001600160a01b03167fa078c4190abe07940190effc1846be0ccf03ad6007bc9e93f9697d0b460befbb8685604051610357929190918252602082015260400190565b60405180910390a350949350505050565b6000610372610554565b61037e85333085610628565b6103a9857f000000000000000000000000000000000000000000000000000000000000000084610732565b60408051610100810182526001600160a01b0380881682528681166020830152610bb88284015233606083015242608083015260a0820186905260c08201859052600060e08301529151631b67c43360e31b815290917f0000000000000000000000000000000000000000000000000000000000000000169063db3e219890610436908490600401610ba6565b6020604051808303816000875af1158015610455573d6000803e3d6000fd5b505050506040513d601f19601f820116820180604052508101906104799190610c10565b9150828210156104c3576104af867f00000000000000000000000000000000000000000000000000000000000000006000610732565b6104c386336104be8587610c29565b610832565b846001600160a01b0316866001600160a01b03167fa078c4190abe07940190effc1846be0ccf03ad6007bc9e93f9697d0b460befbb8487604051610357929190918252602082015260400190565b610519610554565b6001600160a01b03811661054857604051631e4fbdf760e01b8152600060048201526024015b60405180910390fd5b610551816105d8565b50565b6000546001600160a01b031633146101eb5760405163118cdaa760e01b815233600482015260240161053f565b604080516001600160a01b038416602482015260448082018490528251808303909101815260649091019091526020810180516001600160e01b031663a9059cbb60e01b1790526105d390849061092b565b505050565b600080546001600160a01b038381166001600160a01b0319831681178455604051919092169283917f8be0079c531659141344cd1fd0a4f28419497f9722a3daafe3b4186f6b6457e09190a35050565b604080516001600160a01b0385811660248301528481166044830152606480830185905283518084039091018152608490920183526020820180516001600160e01b03166323b872dd60e01b179052915160009283929088169161068c9190610c4a565b6000604051808303816000865af19150503d80600081146106c9576040519150601f19603f3d011682016040523d82523d6000602084013e6106ce565b606091505b50915091508180156106f85750805115806106f85750808060200190518101906106f89190610c79565b61072a5760405162461bcd60e51b815260206004820152600360248201526229aa2360e91b604482015260640161053f565b505050505050565b604080516001600160a01b038481166024830152604480830185905283518084039091018152606490920183526020820180516001600160e01b031663095ea7b360e01b179052915160009283929087169161078e9190610c4a565b6000604051808303816000865af19150503d80600081146107cb576040519150601f19603f3d011682016040523d82523d6000602084013e6107d0565b606091505b50915091508180156107fa5750805115806107fa5750808060200190518101906107fa9190610c79565b61082b5760405162461bcd60e51b8152602060048201526002602482015261534160f01b604482015260640161053f565b5050505050565b604080516001600160a01b038481166024830152604480830185905283518084039091018152606490920183526020820180516001600160e01b031663a9059cbb60e01b179052915160009283929087169161088e9190610c4a565b6000604051808303816000865af19150503d80600081146108cb576040519150601f19603f3d011682016040523d82523d6000602084013e6108d0565b606091505b50915091508180156108fa5750805115806108fa5750808060200190518101906108fa9190610c79565b61082b5760405162461bcd60e51b815260206004820152600260248201526114d560f21b604482015260640161053f565b60006109406001600160a01b0384168361098e565b905080516000141580156109655750808060200190518101906109639190610c79565b155b156105d357604051635274afe760e01b81526001600160a01b038416600482015260240161053f565b606061099c838360006109a5565b90505b92915050565b6060814710156109ca5760405163cd78605960e01b815230600482015260240161053f565b600080856001600160a01b031684866040516109e69190610c4a565b60006040518083038185875af1925050503d8060008114610a23576040519150601f19603f3d011682016040523d82523d6000602084013e610a28565b606091505b5091509150610a38868383610a42565b9695505050505050565b606082610a5757610a5282610a9e565b6101ef565b8151158015610a6e57506001600160a01b0384163b155b15610a9757604051639996b31560e01b81526001600160a01b038516600482015260240161053f565b50806101ef565b805115610aae5780518082602001fd5b604051630a12f52160e11b815260040160405180910390fd5b80356001600160a01b0381168114610ade57600080fd5b919050565b60008060408385031215610af657600080fd5b610aff83610ac7565b946020939093013593505050565b600080600060608486031215610b2257600080fd5b610b2b84610ac7565b9250610b3960208501610ac7565b9150604084013590509250925092565b60008060008060808587031215610b5f57600080fd5b610b6885610ac7565b9350610b7660208601610ac7565b93969395505050506040820135916060013590565b600060208284031215610b9d57600080fd5b61099c82610ac7565b610100810161099f828480516001600160a01b03908116835260208083015182169084015260408083015162ffffff16908401526060808301518216908401526080808301519084015260a0828101519084015260c0808301519084015260e09182015116910152565b600060208284031215610c2257600080fd5b5051919050565b8181038181111561099f57634e487b7160e01b600052601160045260246000fd5b6000825160005b81811015610c6b5760208186018101518583015201610c51565b506000920191825250919050565b600060208284031215610c8b57600080fd5b815180151581146101ef57600080fdfea26469706673582212206c680d05959da8e6139e1c506f3631ee7d802e906de3a9adf979a979b9da70e464736f6c63430008140033",
  "devdoc": {
    "errors": {
      "AddressEmptyCode(address)": [
        {
          "details": "There's no code at `target` (it is not a contract)."
        }
      ],
      "AddressInsufficientBalance(address)": [
        {
          "details": "The ETH balance of the account is not enough to perform the operation."
        }
      ],
      "FailedInnerCall()": [
        {
          "details": "A call to an address target failed. The target may have reverted."
        }
      ],
      "OwnableInvalidOwner(address)": [
        {
          "details": "The owner is not a valid owner account. (eg. `address(0)`)"
        }
      ],
      "OwnableUnauthorizedAccount(address)": [
        {
          "details": "The caller account is not authorized to perform an operation."
        }
      ],
      "SafeERC20FailedOperation(address)": [
        {
          "details": "An operation with an ERC20 token failed."
        }
      ]
    },
    "kind": "dev",
    "methods": {
      "owner()": {
        "details": "Returns the address of the current owner."
      },
      "renounceOwnership()": {
        "details": "Leaves the contract without owner. It will not be possible to call `onlyOwner` functions. Can only be called by the current owner. NOTE: Renouncing ownership will leave the contract without an owner, thereby disabling any functionality that is only available to the owner."
      },
      "transferOwnership(address)": {
        "details": "Transfers ownership of the contract to a new account (`newOwner`). Can only be called by the current owner."
      }
    },
    "version": 1
  },
  "userdoc": {
    "kind": "user",
    "methods": {},
    "version": 1
  },
  "storageLayout": {
    "storage": [
      {
        "astId": 433,
        "contract": "contracts/UniswapAdapter.sol:UniswapAdapter",
        "label": "_owner",
        "offset": 0,
        "slot": "0",
        "type": "t_address"
      }
    ],
    "types": {
      "t_address": {
        "encoding": "inplace",
        "label": "address",
        "numberOfBytes": "20"
      }
    }
  }
}